{
  "_format": "hh-sol-artifact-1",
  "contractName": "Token",
  "sourceName": "contracts/Token.sol",
  "abi": [
    {
      "inputs": [],
      "stateMutability": "nonpayable",
      "type": "constructor"
    },
    {
      "anonymous": false,
      "inputs": [
        {
          "indexed": true,
          "internalType": "address",
          "name": "from",
          "type": "address"
        },
        {
          "indexed": true,
          "internalType": "address",
          "name": "to",
          "type": "address"
        },
        {
          "indexed": false,
          "internalType": "uint256",
          "name": "amount",
          "type": "uint256"
        }
      ],
      "name": "Transfer",
      "type": "event"
    },
    {
      "inputs": [
        {
          "internalType": "address",
          "name": "account",
          "type": "address"
        }
      ],
      "name": "balanceOf",
      "outputs": [
        {
          "internalType": "uint256",
          "name": "",
          "type": "uint256"
        }
      ],
      "stateMutability": "view",
      "type": "function"
    },
    {
      "inputs": [],
      "name": "candidate",
      "outputs": [
        {
          "internalType": "address",
          "name": "",
          "type": "address"
        }
      ],
      "stateMutability": "view",
      "type": "function"
    },
    {
      "inputs": [],
      "name": "decimals",
      "outputs": [
        {
          "internalType": "uint256",
          "name": "",
          "type": "uint256"
        }
      ],
      "stateMutability": "pure",
      "type": "function"
    },
    {
      "inputs": [
        {
          "internalType": "uint256",
          "name": "amount",
          "type": "uint256"
        },
        {
          "internalType": "address",
          "name": "_to",
          "type": "address"
        }
      ],
      "name": "mint",
      "outputs": [],
      "stateMutability": "nonpayable",
      "type": "function"
    },
    {
      "inputs": [],
      "name": "name",
      "outputs": [
        {
          "internalType": "string",
          "name": "",
          "type": "string"
        }
      ],
      "stateMutability": "view",
      "type": "function"
    },
    {
      "inputs": [
        {
          "internalType": "uint256",
          "name": "",
          "type": "uint256"
        }
      ],
      "name": "owners",
      "outputs": [
        {
          "internalType": "address",
          "name": "",
          "type": "address"
        }
      ],
      "stateMutability": "view",
      "type": "function"
    },
    {
      "inputs": [],
      "name": "ownersCount",
      "outputs": [
        {
          "internalType": "uint256",
          "name": "",
          "type": "uint256"
        }
      ],
      "stateMutability": "view",
      "type": "function"
    },
    {
      "inputs": [
        {
          "internalType": "address",
          "name": "_new",
          "type": "address"
        }
      ],
      "name": "setCandidate",
      "outputs": [],
      "stateMutability": "nonpayable",
      "type": "function"
    },
    {
      "inputs": [],
      "name": "symbol",
      "outputs": [
        {
          "internalType": "string",
          "name": "",
          "type": "string"
        }
      ],
      "stateMutability": "view",
      "type": "function"
    },
    {
      "inputs": [],
      "name": "totalSupply",
      "outputs": [
        {
          "internalType": "uint256",
          "name": "",
          "type": "uint256"
        }
      ],
      "stateMutability": "view",
      "type": "function"
    },
    {
      "inputs": [
        {
          "internalType": "address",
          "name": "to",
          "type": "address"
        },
        {
          "internalType": "uint256",
          "name": "amount",
          "type": "uint256"
        }
      ],
      "name": "transfer",
      "outputs": [],
      "stateMutability": "nonpayable",
      "type": "function"
    },
    {
      "inputs": [
        {
          "internalType": "address",
          "name": "sender",
          "type": "address"
        },
        {
          "internalType": "address",
          "name": "recepient",
          "type": "address"
        },
        {
          "internalType": "uint256",
          "name": "amount",
          "type": "uint256"
        }
      ],
      "name": "transferFrom",
      "outputs": [],
      "stateMutability": "nonpayable",
      "type": "function"
    },
    {
      "inputs": [
        {
          "internalType": "bool",
          "name": "_choose",
          "type": "bool"
        }
      ],
      "name": "vote",
      "outputs": [],
      "stateMutability": "nonpayable",
      "type": "function"
    },
    {
      "inputs": [],
      "name": "voting",
      "outputs": [
        {
          "internalType": "bool",
          "name": "",
          "type": "bool"
        }
      ],
      "stateMutability": "view",
      "type": "function"
    }
  ],
  "bytecode": "0x60806040526040518060400160405280601381526020017f5468697264204976617369756b20546f6b656e00000000000000000000000000815250600490805190602001906200005192919062000377565b506040518060400160405280600481526020017f4956533200000000000000000000000000000000000000000000000000000000815250600590805190602001906200009f92919062000377565b50348015620000ad57600080fd5b506001339080600181540180825580915050600190039060005260206000200160009091909190916101000a81548173ffffffffffffffffffffffffffffffffffffffff021916908373ffffffffffffffffffffffffffffffffffffffff16021790555060026000815480929190620001269062000460565b91905055506000600760003373ffffffffffffffffffffffffffffffffffffffff1673ffffffffffffffffffffffffffffffffffffffff16815260200190815260200160002060006101000a81548160ff0219169083151502179055506200019e6801158e460913d0000033620001a460201b60201c565b62000650565b600080600090505b6002548110156200024d5760018181548110620001ce57620001cd620004ae565b5b9060005260206000200160009054906101000a900473ffffffffffffffffffffffffffffffffffffffff1673ffffffffffffffffffffffffffffffffffffffff163373ffffffffffffffffffffffffffffffffffffffff1614156200023757600191506200024d565b8080620002449062000460565b915050620001ac565b50600115158115151462000298576040517f08c379a00000000000000000000000000000000000000000000000000000000081526004016200028f906200053e565b60405180910390fd5b82600360008473ffffffffffffffffffffffffffffffffffffffff1673ffffffffffffffffffffffffffffffffffffffff1681526020019081526020016000206000828254620002e9919062000560565b925050819055508260008082825462000303919062000560565b925050819055508173ffffffffffffffffffffffffffffffffffffffff16600073ffffffffffffffffffffffffffffffffffffffff167fddf252ad1be2c89b69c2b068fc378daa952ba7f163c4a11628f55a4df523b3ef856040516200036a9190620005ce565b60405180910390a3505050565b82805462000385906200061a565b90600052602060002090601f016020900481019282620003a95760008555620003f5565b82601f10620003c457805160ff1916838001178555620003f5565b82800160010185558215620003f5579182015b82811115620003f4578251825591602001919060010190620003d7565b5b50905062000404919062000408565b5090565b5b808211156200042357600081600090555060010162000409565b5090565b7f4e487b7100000000000000000000000000000000000000000000000000000000600052601160045260246000fd5b6000819050919050565b60006200046d8262000456565b91507fffffffffffffffffffffffffffffffffffffffffffffffffffffffffffffffff821415620004a357620004a262000427565b5b600182019050919050565b7f4e487b7100000000000000000000000000000000000000000000000000000000600052603260045260246000fd5b600082825260208201905092915050565b7f4e6f7420616e64206f776e657200000000000000000000000000000000000000600082015250565b600062000526600d83620004dd565b91506200053382620004ee565b602082019050919050565b60006020820190508181036000830152620005598162000517565b9050919050565b60006200056d8262000456565b91506200057a8362000456565b9250827fffffffffffffffffffffffffffffffffffffffffffffffffffffffffffffffff03821115620005b257620005b162000427565b5b828201905092915050565b620005c88162000456565b82525050565b6000602082019050620005e56000830184620005bd565b92915050565b7f4e487b7100000000000000000000000000000000000000000000000000000000600052602260045260246000fd5b600060028204905060018216806200063357607f821691505b602082108114156200064a5762000649620005eb565b5b50919050565b6116f780620006606000396000f3fe608060405234801561001057600080fd5b50600436106100ea5760003560e01c80636c8381f81161008c57806395d89b411161006657806395d89b4114610237578063a9059cbb14610255578063b948854614610271578063fce1ccca1461028f576100ea565b80636c8381f8146101cd57806370a08231146101eb57806394bf804d1461021b576100ea565b806318160ddd116100c857806318160ddd1461015957806323b872dd14610177578063313ce567146101935780634b9f5c98146101b1576100ea565b8063025e7c27146100ef57806306fdde031461011f57806307880b7f1461013d575b600080fd5b61010960048036038101906101049190610f8a565b6102ad565b6040516101169190610ff8565b60405180910390f35b6101276102ec565b60405161013491906110ac565b60405180910390f35b610157600480360381019061015291906110fa565b61037e565b005b61016161051c565b60405161016e9190611136565b60405180910390f35b610191600480360381019061018c9190611151565b610525565b005b61019b61068a565b6040516101a89190611136565b60405180910390f35b6101cb60048036038101906101c691906111dc565b610693565b005b6101d5610b10565b6040516101e29190610ff8565b60405180910390f35b610205600480360381019061020091906110fa565b610b36565b6040516102129190611136565b60405180910390f35b61023560048036038101906102309190611209565b610b7f565b005b61023f610d40565b60405161024c91906110ac565b60405180910390f35b61026f600480360381019061026a9190611249565b610dd2565b005b610279610f36565b6040516102869190611136565b60405180910390f35b610297610f3c565b6040516102a49190611298565b60405180910390f35b600181815481106102bd57600080fd5b906000526020600020016000915054906101000a900473ffffffffffffffffffffffffffffffffffffffff1681565b6060600480546102fb906112e2565b80601f0160208091040260200160405190810160405280929190818152602001828054610327906112e2565b80156103745780601f1061034957610100808354040283529160200191610374565b820191906000526020600020905b81548152906001019060200180831161035757829003601f168201915b5050505050905090565b600080600090505b60025481101561041e57600181815481106103a4576103a3611314565b5b9060005260206000200160009054906101000a900473ffffffffffffffffffffffffffffffffffffffff1673ffffffffffffffffffffffffffffffffffffffff163373ffffffffffffffffffffffffffffffffffffffff16141561040b576001915061041e565b808061041690611372565b915050610386565b506001151581151514610466576040517f08c379a000000000000000000000000000000000000000000000000000000000815260040161045d90611407565b60405180910390fd5b60001515600660149054906101000a900460ff161515146104bc576040517f08c379a00000000000000000000000000000000000000000000000000000000081526004016104b390611473565b60405180910390fd5b6001600660146101000a81548160ff02191690831515021790555081600660006101000a81548173ffffffffffffffffffffffffffffffffffffffff021916908373ffffffffffffffffffffffffffffffffffffffff1602179055505050565b60008054905090565b82818061053183610b36565b1015610572576040517f08c379a0000000000000000000000000000000000000000000000000000000008152600401610569906114df565b60405180910390fd5b82600360008773ffffffffffffffffffffffffffffffffffffffff1673ffffffffffffffffffffffffffffffffffffffff16815260200190815260200160002060008282546105c191906114ff565b9250508190555082600360008673ffffffffffffffffffffffffffffffffffffffff1673ffffffffffffffffffffffffffffffffffffffff16815260200190815260200160002060008282546106179190611533565b925050819055508373ffffffffffffffffffffffffffffffffffffffff168573ffffffffffffffffffffffffffffffffffffffff167fddf252ad1be2c89b69c2b068fc378daa952ba7f163c4a11628f55a4df523b3ef8560405161067b9190611136565b60405180910390a35050505050565b60006012905090565b600080600090505b60025481101561073357600181815481106106b9576106b8611314565b5b9060005260206000200160009054906101000a900473ffffffffffffffffffffffffffffffffffffffff1673ffffffffffffffffffffffffffffffffffffffff163373ffffffffffffffffffffffffffffffffffffffff1614156107205760019150610733565b808061072b90611372565b91505061069b565b50600115158115151461077b576040517f08c379a000000000000000000000000000000000000000000000000000000000815260040161077290611407565b60405180910390fd5b60011515600660149054906101000a900460ff161515146107d1576040517f08c379a00000000000000000000000000000000000000000000000000000000081526004016107c8906115d5565b60405180910390fd5b60001515600760003373ffffffffffffffffffffffffffffffffffffffff1673ffffffffffffffffffffffffffffffffffffffff16815260200190815260200160002060009054906101000a900460ff16151514610864576040517f08c379a000000000000000000000000000000000000000000000000000000000815260040161085b90611641565b60405180910390fd5b6001600760003373ffffffffffffffffffffffffffffffffffffffff1673ffffffffffffffffffffffffffffffffffffffff16815260200190815260200160002060006101000a81548160ff0219169083151502179055506001151582151514156108e657600860008154809291906108dc90611372565b91905055506108ff565b600960008154809291906108f990611372565b91905055505b6002805461090d9190611690565b600854118061092a5750600280546109259190611690565b600954115b15610b0c576002805461093d9190611690565b60085411156109e4576001600660009054906101000a900473ffffffffffffffffffffffffffffffffffffffff169080600181540180825580915050600190039060005260206000200160009091909190916101000a81548173ffffffffffffffffffffffffffffffffffffffff021916908373ffffffffffffffffffffffffffffffffffffffff160217905550600260008154809291906109de90611372565b91905055505b6000600660006101000a81548173ffffffffffffffffffffffffffffffffffffffff021916908373ffffffffffffffffffffffffffffffffffffffff1602179055506000600660146101000a81548160ff0219169083151502179055506000600881905550600060098190555060005b600180549050811015610b0a5760006007600060018481548110610a7b57610a7a611314565b5b9060005260206000200160009054906101000a900473ffffffffffffffffffffffffffffffffffffffff1673ffffffffffffffffffffffffffffffffffffffff1673ffffffffffffffffffffffffffffffffffffffff16815260200190815260200160002060006101000a81548160ff0219169083151502179055508080610b0290611372565b915050610a54565b505b5050565b600660009054906101000a900473ffffffffffffffffffffffffffffffffffffffff1681565b6000600360008373ffffffffffffffffffffffffffffffffffffffff1673ffffffffffffffffffffffffffffffffffffffff168152602001908152602001600020549050919050565b600080600090505b600254811015610c1f5760018181548110610ba557610ba4611314565b5b9060005260206000200160009054906101000a900473ffffffffffffffffffffffffffffffffffffffff1673ffffffffffffffffffffffffffffffffffffffff163373ffffffffffffffffffffffffffffffffffffffff161415610c0c5760019150610c1f565b8080610c1790611372565b915050610b87565b506001151581151514610c67576040517f08c379a0000000000000000000000000000000000000000000000000000000008152600401610c5e90611407565b60405180910390fd5b82600360008473ffffffffffffffffffffffffffffffffffffffff1673ffffffffffffffffffffffffffffffffffffffff1681526020019081526020016000206000828254610cb69190611533565b9250508190555082600080828254610cce9190611533565b925050819055508173ffffffffffffffffffffffffffffffffffffffff16600073ffffffffffffffffffffffffffffffffffffffff167fddf252ad1be2c89b69c2b068fc378daa952ba7f163c4a11628f55a4df523b3ef85604051610d339190611136565b60405180910390a3505050565b606060058054610d4f906112e2565b80601f0160208091040260200160405190810160405280929190818152602001828054610d7b906112e2565b8015610dc85780601f10610d9d57610100808354040283529160200191610dc8565b820191906000526020600020905b815481529060010190602001808311610dab57829003601f168201915b5050505050905090565b338180610dde83610b36565b1015610e1f576040517f08c379a0000000000000000000000000000000000000000000000000000000008152600401610e16906114df565b60405180910390fd5b82600360003373ffffffffffffffffffffffffffffffffffffffff1673ffffffffffffffffffffffffffffffffffffffff1681526020019081526020016000206000828254610e6e91906114ff565b9250508190555082600360008673ffffffffffffffffffffffffffffffffffffffff1673ffffffffffffffffffffffffffffffffffffffff1681526020019081526020016000206000828254610ec49190611533565b925050819055508373ffffffffffffffffffffffffffffffffffffffff163373ffffffffffffffffffffffffffffffffffffffff167fddf252ad1be2c89b69c2b068fc378daa952ba7f163c4a11628f55a4df523b3ef85604051610f289190611136565b60405180910390a350505050565b60025481565b600660149054906101000a900460ff1681565b600080fd5b6000819050919050565b610f6781610f54565b8114610f7257600080fd5b50565b600081359050610f8481610f5e565b92915050565b600060208284031215610fa057610f9f610f4f565b5b6000610fae84828501610f75565b91505092915050565b600073ffffffffffffffffffffffffffffffffffffffff82169050919050565b6000610fe282610fb7565b9050919050565b610ff281610fd7565b82525050565b600060208201905061100d6000830184610fe9565b92915050565b600081519050919050565b600082825260208201905092915050565b60005b8381101561104d578082015181840152602081019050611032565b8381111561105c576000848401525b50505050565b6000601f19601f8301169050919050565b600061107e82611013565b611088818561101e565b935061109881856020860161102f565b6110a181611062565b840191505092915050565b600060208201905081810360008301526110c68184611073565b905092915050565b6110d781610fd7565b81146110e257600080fd5b50565b6000813590506110f4816110ce565b92915050565b6000602082840312156111105761110f610f4f565b5b600061111e848285016110e5565b91505092915050565b61113081610f54565b82525050565b600060208201905061114b6000830184611127565b92915050565b60008060006060848603121561116a57611169610f4f565b5b6000611178868287016110e5565b9350506020611189868287016110e5565b925050604061119a86828701610f75565b9150509250925092565b60008115159050919050565b6111b9816111a4565b81146111c457600080fd5b50565b6000813590506111d6816111b0565b92915050565b6000602082840312156111f2576111f1610f4f565b5b6000611200848285016111c7565b91505092915050565b600080604083850312156112205761121f610f4f565b5b600061122e85828601610f75565b925050602061123f858286016110e5565b9150509250929050565b600080604083850312156112605761125f610f4f565b5b600061126e858286016110e5565b925050602061127f85828601610f75565b9150509250929050565b611292816111a4565b82525050565b60006020820190506112ad6000830184611289565b92915050565b7f4e487b7100000000000000000000000000000000000000000000000000000000600052602260045260246000fd5b600060028204905060018216806112fa57607f821691505b6020821081141561130e5761130d6112b3565b5b50919050565b7f4e487b7100000000000000000000000000000000000000000000000000000000600052603260045260246000fd5b7f4e487b7100000000000000000000000000000000000000000000000000000000600052601160045260246000fd5b600061137d82610f54565b91507fffffffffffffffffffffffffffffffffffffffffffffffffffffffffffffffff8214156113b0576113af611343565b5b600182019050919050565b7f4e6f7420616e64206f776e657200000000000000000000000000000000000000600082015250565b60006113f1600d8361101e565b91506113fc826113bb565b602082019050919050565b60006020820190508181036000830152611420816113e4565b9050919050565b7f54686520766f74696e6720697320737461727465640000000000000000000000600082015250565b600061145d60158361101e565b915061146882611427565b602082019050919050565b6000602082019050818103600083015261148c81611450565b9050919050565b7f4e6f7420656e6f75676820746f6b656e73000000000000000000000000000000600082015250565b60006114c960118361101e565b91506114d482611493565b602082019050919050565b600060208201905081810360008301526114f8816114bc565b9050919050565b600061150a82610f54565b915061151583610f54565b92508282101561152857611527611343565b5b828203905092915050565b600061153e82610f54565b915061154983610f54565b9250827fffffffffffffffffffffffffffffffffffffffffffffffffffffffffffffffff0382111561157e5761157d611343565b5b828201905092915050565b7f566f74696e672069736e27742073746172746564000000000000000000000000600082015250565b60006115bf60148361101e565b91506115ca82611589565b602082019050919050565b600060208201905081810360008301526115ee816115b2565b9050919050565b7f54686973206f776e657220766f74656400000000000000000000000000000000600082015250565b600061162b60108361101e565b9150611636826115f5565b602082019050919050565b6000602082019050818103600083015261165a8161161e565b9050919050565b7f4e487b7100000000000000000000000000000000000000000000000000000000600052601260045260246000fd5b600061169b82610f54565b91506116a683610f54565b9250826116b6576116b5611661565b5b82820490509291505056fea2646970667358221220040ee047774e27f1043171422adc34a98f77d5a3356abdcaaf9b3f960e44e96964736f6c63430008090033",
  "linkReferences": {},
  "deployedLinkReferences": {}
}